:020000040000FA
:2B000000FFFF62FF2500FFFFFFFFFFFFFFFFFFFFFFFFFFFFFFFFFFFFFFFFFFFFFFFFFFFFFFFFFFFFFFFFFFFFFFFFFF76
:2B002B00601886611886611886611886611886611886010000000018866118DC6118866118866118866118866180BD23
:2B0056004010044110044110044110044110044110040100000000100441100A4110044110044110044110044180E914
:2B008100000000000000000000000000000000000000000000000000000000000000000000000000000000000080E7ED
:2B00AC00000000000000000000000000000000000000000000000000000000000000000000000000000000000080E7C2
:2B00D700000000000000000000000000000000000000000000000000000000000000000000000000000000000080E797
:2B010200000000000000000000000000000000000000000000000000000000000000000000000000000000000080E76B
:2B012D00000000000000000000000000000000000000000000000000000000000000000000000000000000000080E740
:2B015800000000000000000000000000000000000000000000000000000000000000000000000000000000000080E715
:2B018300000000000000000000000000000000000000000000000000000000000000000000000000000000000080E7EA
:2B01AE00000000000000000000000000000000000000000000000000000000000000000000000000000000000080E7BF
:2B01D900000000000000000000000000000000000000000000000000000000000000000000000000000000000080E794
:2B020400000000000000000000000000000000000000000000000000000000000000000000000000000000000080E768
:2B022F00000000000000000000000000000000000000000000000000000000000000000000000000000000000080E73D
:2B025A00000000000000000000000000000000000000000000000000000000000000000000000000000000000080E712
:2B028500000000000000000000000000000000000000000000000000000000000000000000000000000000000080E7E7
:2B02B000000000000000000000000000000000000000000000000000000000000000000000000000000000000080E7BC
:2B02DB00000000000000000000000000000000000000000000000000000000000000000000000000000000000080E791
:2B030600000000000000000000000000000000000000000000000000000000000000000000000000000000000080E765
:2B033100000000000000000000000000000000000000000000000000000000000000000000000000000000000080E73A
:2B035C00000000000000000000000000000000000000000000000000000000000000000000000000000000000080E70F
:2B038700000000000000000000000000000000000000000000000000000000000000000000000000000000000080E7E4
:2B03B200020000000000000000000000000000000000000000000000000000000000000000000000000000000008ED29
:2B03DD00000000000000000000000000000000000000000000000000000000000000000000000000000000000080E78E
:2B040800000000000000000000000000000000000000000000000000000000000000000000000000000000000080E762
:2B043300000000000000000000000000000000000000000000000000000000000000000000000000000000000080E737
:2B045E00000000000000000000000000000000000000000000000000000000000000000000000000000000000080E70C
:2B048900020000000000000000000000000000000000000000000000000000000000000000000000000000000008ED51
:2B04B400800008800008800008800008800008800008000000000020000220000220000220000220000220000280E7BA
:2B04DF00800008800008800008800008800008800008000000000020000220000220000220000220000220000280E78F
:2B050A00000000000000000000000000000000000000000000000000000000000000000000000000000000000080E75F
:2B053500020000000000000000000000000000000000000000000000000000000000000000000000000000000008EDA4
:2B056000000000000000000000000000000000000000000000000000000000000000000000000000000000000080E709
:2B058B00000000000000000000000000000000000000000000000000000000000000000000000000000000000080E7DE
:2B05B600000000000000000000000000000000000000000000000000000000000000000000000000000000000080E7B3
:2B05E100000000000000000000000000000000000000000000000000000000000000000000000000000000000080E788
:2B060C00020000000000000000000000000000000000000000000000000000000000000000000000000000000008EDCC
:2B063700000000000000000000000000000000000000000000000000000000000000000000000000000000000080E731
:2B066200000000000000000000000000000000000000000000000000000000000000000000000000000000000080E706
:2B068D00000000000000000000000000000000000000000000000000000000000000000000000000000000000080E7DB
:2B06B800020000000000000000000000000000000000000000000000000000000000000000000000000000000008ED20
:2B06E300000000000000000000000000000000000000000000000000000000000000000000000000000000000080E785
:2B070E00000000000000000000000000000000000000000000000000000000000000000000000000000000000080E759
:2B073900000000000000000000000000000000000000000000000000000000000000000000000000000000000080E72E
:2B076400000000000000000000000000000000000000000000000000000000000000000000000000000000000080E703
:2B078F00020000000000000000000000000000000000000000000000000000000000000000000000000000000008ED48
:2B07BA00000000000000000000000000000000000000000000000000000000000000000000000000000000000080E7AD
:2B07E500000000000000000000000000000000000000000000000000000000000000000000000000000000000080E782
:2B081000000000000000000000000000000000000000000000000000000000000000000000000000000000000080E756
:2B083B00020000000000000000000000000000000000000000000000000000000000000000000000000000000008ED9B
:2B086600000000000000000000000000000000000000000000000000000000000000000000000000000000000080E700
:2B089100000000000000000000000000000000000000000000000000000000000000000000000000000000000080E7D5
:2B08BC00000000000000000000000000000000000000000000000000000000000000000000000000000000000080E7AA
:2B08E700000000000000000000000000000000000000000000000000000000000000000000000000000000000080E77F
:2B091200020000000000000000000000000000000000000000000000000000000000000000000000000000000008EDC3
:2B093D00000000000000000000000000000000000000000000000000000000000000000000000000000000000080E728
:2B096800000000000000000000000000000000000000000000000000000000000000000000000000000000000080E7FD
:2B099300000000000000000000000000000000000000000000000000000000000000000000000000000000000080E7D2
:2B09BE00020000000000000000000000000000000000000000000000000000000000000000000000000000000008ED17
:2B09E900000000000000000000000000000000000000000000000000000000000000000000000000000000000080E77C
:2B0A1400000000000000000000000000000000000000000000000000000000000000000000000000000000000080E750
:2B0A3F00000000000000000000000000000000000000000000000000000000000000000000000000000000000080E725
:2B0A6A00000000000000000000000000000000000000000000000000000000000000000000000000000000000080E7FA
:2B0A9500020000000000000000000000000000000000000000000000000000000000000000000000000000000008ED3F
:2B0AC000000000000000000000000000000000000000000000000000000000000000000000000000000000000080E7A4
:2B0AEB00000000000000000000000000000000000000000000000000000000000000000000000000000000000080E779
:2B0B1600000000000000000000000000000000000000000000000000000000000000000000000000000000000080E74D
:2B0B4100020000000000000000000000000000000000000000000000000000000000000000000000000000000008ED92
:2B0B6C00000000000000000000000000000000000000000000000000000000000000000000000000000000000080E7F7
:2B0B9700000000000000000000000000000000000000000000000000000000000000000000000000000000000080E7CC
:2B0BC200000000000000000000000000000000000000000000000000000000000000000000000000000000000080E7A1
:2B0BED00000000000000000000000000000000000000000000000000000000000000000000000000000000000080E776
:2B0C1800020000000000000000000000000000000000000000000000000000000000000000000000000000000008EDBA
:2B0C4300000000000000000000000000000000000000000000000000000000000000000000000000000000000080E71F
:2B0C6E00000000000000000000000000000000000000000000000000000000000000000000000000000000000080E7F4
:2B0C9900000000000000000000000000000000000000000000000000000000000000000000000000000000000080E7C9
:2B0CC400020000000000000000000000000000000000000000000000000000000000000000000000000000000008ED0E
:2B0CEF00000000000000000000000000000000000000000000000000000000000000000000000000000000000080E773
:2B0D1A00000000000000000000000000000000000000000000000000000000000000000000000000000000000080E747
:2B0D4500000000000000000000000000000000000000000000000000000000000000000000000000000000000080E71C
:2B0D7000000000000000000000000000000000000000000000000000000000000000000000000000000000000080E7F1
:2B0D9B00020000000000000000000000000000000000000000000000000000000000000000000000000000000008ED36
:2B0DC600000000000000000000000000000000000000000000000000000000000000000000000000000000000080E79B
:2B0DF100000000000000000000000000000000000000000000000000000000000000000000000000000000000080E770
:2B0E1C00000000000000000000000000000000000000000000000000000000000000000000000000000000000080E744
:2B0E4700020000000000000000000000000000000000000000000000000000000000000000000000000000000008ED89
:2B0E7200000000000000000000000000000000000000000000000000000000000000000000000000000000000080E7EE
:2B0E9D00000000000000000000000000000000000000000000000000000000000000000000000000000000000080E7C3
:2B0EC800000000000000000000000000000000000000000000000000000000000000000000000000000000000080E798
:2B0EF300000000000000000000000000000000000000000000000000000000000000000000000000000000000080E76D
:2B0F1E00020000000000000000000000000000000000000000000000000000000000000000000000000000000008EDB1
:2B0F4900000000000000000000000000000000000000000000000000000000000000000000000000000000000080E716
:2B0F7400000000000000000000000000000000000000000000000000000000000000000000000000000000000080E7EB
:2B0F9F00000000000000000000000000000000000000000000000000000000000000000000000000000000000080E7C0
:2B0FCA00000000000000000000000000000000000000000000000000000000000000000000000000000000000080E795
:2B0FF500000000000000000000000000000000000000000000000000000000000000000000000000000000000080E76A
:2B102000800008800008800008800008800008800008000000000020000220000220000220000220000220000280E742
:2B104B00800008800008800008800008800008800008000000000020000220000220000220000220000220000280E717
:2B107600000000000000000000000000000000000000000000000000000000000000000000000000000000000080E7E8
:2B10A100000000000000000000000000000000000000000000000000000000000000000000000000000000000080E7BD
:2B10CC00000000000000000000000000000000000000000000000000000000000000000000000000000000000080E792
:2B10F700000000000000000000000000000000000000000000000000000000000000000000000000000000000080E767
:2B112200000000000000000000000000000000000000000000000000000000000000000000000000000000000080E73B
:2B114D00000000000000000000000000000000000000000000000000000000000000000000000000000000000080E710
:2B117800000000000000000000000000000000000000000000000000000000000000000000000000000000000080E7E5
:2B11A300000000000000000000000000000000000000000000000000000000000000000000000000000000000080E7BA
:2B11CE00000000000000000000000000000000000000000000000000000000000000000000000000000000000080E78F
:2B11F900000000000000000000000000000000000000000000000000000000000000000000000000000000000080E764
:2B122400000000000000000000000000000000000000000000000000000000000000000000000000000000000080E738
:2B124F00000000000000000000000000000000000000000000000000000000000000000000000000000000000080E70D
:2B127A00000000000000000000000000000000000000000000000000000000000000000000000000000000000080E7E2
:2B12A500000000000000000000000000000000000000000000000000000000000000000000000000000000000080E7B7
:2B12D000000000000000000000000000000000000000000000000000000000000000000000000000000000000080E78C
:2B12FB00000000000000000000000000000000000000000000000000000000000000000000000000000000000080E761
:2B132600000000000000000000000000000000000000000000000000000000000000000000000000000000000080E735
:2B135100000000000000000000000000000000000000000000000000000000000000000000000000000000000080E70A
:2B137C00000000000000000000000000000000000000000000000000000000000000000000000000000000000080E7DF
:2B13A700000000000000000000000000000000000000000000000000000000000000000000000000000000000080E7B4
:2B13D200000000000000000000000000000000000000000000000000000000000000000000000000000000000080E789
:2B13FD00000000000000000000000000000000000000000000000000000000000000000000000000000000000080E75E
:2B142800000000000000000000000000000000000000000000000000000000000000000000000000000000000080E732
:2B145300000000000000000000000000000000000000000000000000000000000000000000000000000000000080E707
:2B147E00000000000000000000000000000000000000000000000000000000000000000000000000000000000080E7DC
:2B14A900000000000000000000000000000000000000000000000000000000000000000000000000000000000080E7B1
:2B14D400000000000000000000000000000000000000000000000000000000000000000000000000000000000080E786
:2B14FF00000000000000000000000000000000000000000000000000000000000000000000000000000000000080E75B
:2B152A00000000000000000000000000000000000000000000400000000000000000000000000000000000000080A72F
:2B155500000000000000000000000000000000000000000000000000000000000000000000000000000000000080E704
:2B158000000000000000000000000000000000000000000000000000000000000000000000000000000000000080E7D9
:2B15AB00000000000000000000000000000000000000000200000000000000000000000000000000000000000080C5CE
:2B15D600000000000000000000000000000000000000000300000000000000000000000000000000000000000080D493
:2B160100000000000000000000000000000000000000000000000000000000020000000000000000000000000080E557
:2B162C00020000000000000000000000000000000000000000000000000000000000000000000000000000000008ED9C
:2B165700000000000000000000000000000000000000000000000000000000000000000000000000000000000080E701
:2B168200000000000000000000000000000000000000000000000000000000020000000000000000000000000080E5D6
:2B16AD00000000000000000000000000000000000000806801905002000000000000000000000000000000000000C483
:2B16D800000000000000000000000000000000000000407501801000000000000000000000000000000000000000ECB5
:2B17030002000000000000000000000000000000000040F51F881004000000000000000000000000000000000008DFE2
:2B172E00800008800008800008800008800008800008C0F51F8818200002200002200002200002200002200002809D03
:2B175900800008800008800008800008800008800008007581841020000220000220000220000220000220000280A8B7
:2B1784000000000000000000000000000000000000004075814611020000000000000000000000000000000000009318
:2B17AF00020000000000000000000000000000000000806841C01D020000000000000000000000000000000000088B72
:2B17DA00000000000000000000000000000000000000000008000000000000000000000000000000000000000000EFED
:2B1805000000000000000000000000000000000000000095E8881C000000000000000000000000000000000000809087
:2B183000000000000000000000000000000000000000009548491100000000000000000000000000000000000000AEA8
:2B185B00000000000000000000000000000000000000005D694111000000000000000000000000000000000000809832
:2B188600020000000000000000000000000000000000805D9D801900000000000000000000000000000000000008E436
:2B18B100000000000000000000000000000000000000005D89001100000000000000000000000000000000000000BF56
:2B18DC00000000000000000000000000000000000000005549411100000000000000000000000000000000000000BA37
:2B190700000000000000000000000000000000000000C05581805C00000000000000000000000000000000000080A61D
:2B19320002000000000000000000000000000000000000000000A000000000000000000000000000000000000008E7F9
:2B195D00000000000000000000000000000000000000C0974881B8000000000000000000000000000000000000809F68
:2B1988000000000000000000000000000000000000000057494119000000000000000000000000000000000000809822
:2B19B30000000000000000000000000000000000000000570940140000000000000000000000000000000000000088CD
:2B19DE00000000000000000000000000000000000000805F895C14000000000000000000000000000000000000809CEA
:2B1A0900020000000000000000000000000000000000005F89801500000000000000000000000000000000000008DB50
:2B1A3400000000000000000000000000000000000000005749011900000000000000000000000000000000001080D964
:2B1A5F00000000000000000000000000000000000000C05749C11900000000000000000000000000000000800100C1E0
:2B1A8A00000000000000000000000000000000000000000000000000000000000000000000000000000000000080E7CA
:2B1AB500000000000000000000000000000000000000809D88480804000000000000000000000000000000002788CE90
:2B1AE0000200000000000000000000000000000000008091884954000000000000000000000000000000000006018319
:2B1B0B0002000000000000000000000000000000000040915CE01100000000000000000000000000000000000800D8AF
:2B1B360002000000000000000000000000000000000040918840110000000000000000000000000000000000068083CF
:2B1B6100020000000000000000000000000000000000409108C190000000000000000000000000000000000006809314
:2B1B8C000000000000000000000000000000000000008091C8C03400000000000000000000000000000000000008BC9D
:2B1BB70000000000000000000000000000000000000080D189400800000000000000000000000000000000804100B66A
:2B1BE200000000000000000000000000000000000000000000000004000000000000000000000000000000008680C905
:2B1C0D00000000000000000000000000000000000000809448813800000000000000000000000000000000000180F521
:2B1C3800020000000000000000000000000000000000405941499500000000000000000000000000000000004088FC03
:2B1C63000000000000000000000000000000000000000059E0491400000000000000000000000000000000000E00FFB3
:2B1C8E000000000000000000000000000000000000000091409D9800000000000000000000000000000000000680C1DE
:2B1CB9000000000000000000000000000000000000000019E1493400000000000000000000000000000000000680E91A
:2B1CE400000000000000000000000000000000000000405941491500000000000000000000000000000000000001EAB2
:2B1D0F00020000000000000000000000000000000000809448813802000000000000000000000000000000800188D7B0
:2B1D3A000000000000000000000000000000000000000000000020000000000000000000000000000000000006808355
:2B1D650000000000000000000000000000000000000080491DC03500000000000000000000000000000000008180B4C3
:2B1D9000000000000000000000000000000000000000409911141500000000000000000000000000000000004000FADB
:2B1DBB00020000000000000000000000000000000000408901081400000000000000000000000000000000000E088F70
:2B1DE6000000000000000000000000000000000000008089099E1C00000000000000000000000000000000000600DB25
:2B1E1100000000000000000000000000000000000000404949491400000000000000000000000000000000000680846D
:2B1E3C00000000000000000000000000000000000000404945550900000000000000000000000000000000000084A229
:2B1E6700000000000000000000000000000000000000808D5D810800000000000000000000000000000000800180AFAD
:2B1E9200020000000000000000000000000000000000000000000000000000000000000000000000000000000008ED2E
:2B1EBD0000000000000000000000000000000000000040C988C00900000000000000000000000000000000000D84FE11
:2B1EE800000000000000000000000000000000000000408908881400000000000000000000000000000000004400B36B
:2B1F1300000000000000000000000000000000000000404909880400000000000000000000000000000000000880EE0F
:2B1F3E00020000000000000000000000000000000000C04989880C00000000000000000000000000000000000481B01B
:2B1F6900000000000000000000000000000000000000404995881400000000000000000000000000000000000C08FA85
:2B1F940000000000000000000000000000000000000080489588140000000000000000000000000000000000000AC758
:2B1FBF00000000000000000000000000000000000000808894800800000000000000000000000000000000800108AF9B
:2B1FEA0000000000000000000000000000000000000000000000000000000000000000000000000000000000000ACFF3
:2B201500020000000000000000000000000000000000801415880800000000000000000000000000000000000B80DA00
:2B2040000000000000000000000000000000000000004015154855000000000000000000000000000000000042808C20
:2B206B00000000000000000000000000000000000000001509401500000000000000000000000000000000000880BF90
:2B209600000000000000000000000000000000000000C09D094009000000000000000000000000000000000002818865
:2B20C100000000000000000000000000000000000000C05509C01500000000000000000000000000000000000A08D11E
:2B20EC00020000000000000000000000000000000000405515481500000000000000000000000000000000002008A2F6
:2B211700020000000000000000000000000000000000809415880800000000000000000000000000000000800390CB04
:2B214200020000000000000000000000000000000000000000000000000000000000000000000000000000000208CF97
:2B216D00020000000000000000000000000000000000000000000000000000000000000000000000000000001308DF4B
:2B219800000000000000000000000000000000000000000000000000000000000000000000000000000000001408AA56
:2B21C300000000000000000000000000000000000000000000000000000000000000000000000000000000000E008162
:2B21EE0000000000000000000000000000000000000000000000000000000000000000000000000000000000068081BF
:2B221900020000000000000000000000000000000000000000000000000000000000000000000000000000000E02A3E5
:2B224400020000000000000000000000000000000000000000000000000000000000000000000000000000000090F4E9
:2B226F00000000000000000000000000000000000000000000000000000000000000000000000000000000000080E7DD
:2B229A00800008800008800008800008800008800008000000000020000220000220000220000220000220000280E7B6
:2B22C500800008800008800008800008800008800008000000000020000220000220000220000220000220000280E78B
:2B22F000000000000000000000000000000000000000000000000000000000000000000000000000000000800000EF54
:2B231B00000000000000000000000000000000000000000000000000000000000000000000000000000000000080E730
:2B234600000000000000000000000000000000000000000401401008000000000000000000000000000000000000FA15
:2B23710000000000000000000000000000000000000040100004020000000000000000000000200000000000008082C9
:2B239C00000000000000000000000000000000000000409200240908000000000000000000002000000000800000BBB4
:2B23C700000000000000000000000000000000000000400001000000000000000000000000000000000000000080B773
:2B23F200000000000000000000000000000000000000008000000000000000000000000000000000000000000280CDF1
:2B241D00000000000000000000000000000000000000000000000000000000000000000000000000000000000481B35C
:2B244800000000000000000000000000000000000000000000000000000000000000000000000000000000000800E77A
:2B247300000000000000000000000000000000000000004000000000000000000000000000000000000000000008EB0B
:2B249E00000000000000000000000000000000000000000000000000000000000000000000000000000000000080E7AC
:2B24C900000000000000000000000000000000000000000000000000000000000000000000000000000000000008EFF1
:2B24F400000000000000000000000000000000000000000000000000000000000000000000000000000000008084AF0A
:2B251F00000000000000000000000000000000000000000000000000000000000000000000000000000000000080E72A
:2B254A00000000000000000000000000000000000000000000000000000000000000000000000000000000004081F3B2
:2B257500000000000000000000000000000000000000000000000000000000000000000000000000000000000080E7D4
:2B25A000000000000000000000000000000000000000000000040000000000000000000000000000000000000080E3A9
:2B25CB00000000000000000000000000000000000000000000000000000000000000000000000000000000000802C714
:2B25F600000000000000000000000000000000000000000000000000000000000000000000000000000000002080E535
:2B262100000000000000000000000000000000000000000000000000000000000000000000000000000000000080E727
:2B264C00000000000000000000000000000000000000000000000000000000000000000000000000000000000080E7FC
:2B267700000000000000000000000000000000000000000000000000000000000000000000000000000000000080E7D1
:2B26A200000000000000000000000000000000000000000000000000000000000000000000000000000000000080E7A6
:2B26CD00000000000000000000000000000000000000000000000000000000000000000000000000000000000080E77B
:2B26F800000000000000000000000000000000000000000000000000000000000000000000000000000000000080E750
:2B272300000000000000000000000000000000000000000000000000000000000000000000000000000000000080E724
:2B274E00000000000000000000000000000000000000000000000000000000000000000000000000000000000080E7F9
:2B277900000000000000000000000000000000000000000000000000000000000000000000000000000000000080E7CE
:2B27A400000000000000000000000000000000000000000000400000000000000000000000000000000000000080A7A3
:2B27CF00000000000000000000000000000000000000000000000000000000000000000000000000000000000080E778
:2B27FA00000000000000000000000000000000000000000000000000000000000000000000000000000000000080E74D
:2B282500000000000000000000000000000000000000000200000000000000000000000000000000000000000080C541
:2B285000000000000000000000000000000000000000000300000000000000000000000000000000000000000080D406
:2B287B00000000000000000000000000000000000000000000800000000000020000000000000000000000000000EDC3
:2B28A600020000000000000000000000000000000000000000000000000000000000000000000000000000000008ED10
:2B28D100000000000000000000000000000000000000000000000000000000000000000000000000000000000080E775
:2B28FC00000000000000000000000000000000000000000000000000000000020000000000000000000000000080E54A
:2B292700000000000000000000000000000000000000C05D088444020000000000000000000000000000000000809B7B
:2B29520000000000000000000000000000000000000040D50D8C0400000000000000000000000000000000000080E741
:2B297D0002000000000000000000000000000000000040D51D880404000000000000000000000000000000000008B8AB
:2B29A80080000880000880000880000880000880000840551C900C20000220000220000220000220000220000200F2C9
:2B29D30080000880000880000880000880000880000840548C100520000220000220000220000220000220000280EB3D
:2B29FE00000000000000000000000000000000000000405508410502000000000000000000000000000000000000CBFE
:2B2A2900020000000000000000000000000000000000C05D00C11D02000000000000000000000000000000000008C8B3
:2B2A5400000000000000000000000000000000000000000008000000000000000000000000000000000000000000EF60
:2B2A7F000000000000000000000000000000000000004094C8C91D00000000000000000000000000000000000080B377
:2B2AAA0000000000000000000000000000000000000040D449490500000000000000000000000000000000000000AEA8
:2B2AD500000000000000000000000000000000000000405449410500000000000000000000000000000000000000AE05
:2B2B0000020000000000000000000000000000000000C05CDDC00D00000000000000000000000000000000000008F4E6
:2B2B2B00000000000000000000000000000000000000405CDD410400000000000000000000000000000000000000EED3
:2B2B5600000000000000000000000000000000000000405C49410500000000000000000000000000000000000080AEFB
:2B2B8100000000000000000000000000000000000000C055C1C15D00000000000000000000000000000000000080B203
:2B2BAC0002000000000000000000000000000000000000000000A000000000000000000000000000000000000008E76D
:2B2BD700000000000000000000000000000000000000C0C51DC1AD00000000000000000000000000000000000080A99A
:2B2C0200000000000000000000000000000000000000404451411500000000000000000000000000000000000080B745
:2B2C2D000000000000000000000000000000000000004044D1001500000000000000000000000000000000000000F61C
:2B2C5800000000000000000000000000000000000000C044911C1500000000000000000000000000000000000080A665
:2B2C8300020000000000000000000000000000000000405C11C11500000000000000000000000000000000000008F0A9
:2B2CAE00000000000000000000000000000000000000405C51411400000000000000000000000000000000000000A712
:2B2CD900000000000000000000000000000000000000C0455DC00D00000000000000000000000000000000000080EE33
:2B2D04000000000000000000000000000000000000000000000C0000000000000000000000000000000000000080EB2D
:2B2D2F00020000000000000000000000000000000000C09C88081D04000000000000000000000000000000000088FCE6
:2B2D5A000000000000000000000000000000000000004085DC095500000000000000000000000000000000000080BE11
:2B2D850000000000000000000000000000000000000040851CC10500000000000000000000000000000000000080BF3D
:2B2DB0000000000000000000000000000000000000004085C8410500000000000000000000000000000000000080A203
:2B2DDB00000000000000000000000000000000000000408548808500000000000000000000000000000000000080E358
:2B2E06000200000000000000000000000000000000004085C8013500000000000000000000000000000000000008EBE9
:2B2E3100000000000000000000000000000000000000C0C489001D00000000000000000000000000000000000080AB21
:2B2E5C00000000000000000000000000000000000000000000000004000000000000000000000000000000000080A720
:2B2E8700000000000000000000000000000000000000C0D55DC13D00000000000000000000000000000000000080E5CB
:2B2EB20002000000000000000000000000000000000040554D499500000000000000000000000000000000000088F4B7
:2B2EDD00000000000000000000000000000000000000400CED09150000000000000000000000000000000000000080F3
:2B2F080000000000000000000000000000000000000040CC4D9D9D00000000000000000000000000000000000080BAD1
:2B2F3300000000000000000000000000000000000000404CEC0935000000000000000000000000000000000000009627
:2B2F5E0000000000000000000000000000000000000040554D491500000000000000000000000000000000000000F612
:2B2F8900020000000000000000000000000000000000C0D55DC13D02000000000000000000000000000000000008CF52
:2B2FB400000000000000000000000000000000000000000000002000000000000000000000000000000000000080E56D
:2B2FDF00000000000000000000000000000000000000C04D1DC03500000000000000000000000000000000000080A97F
:2B300A00000000000000000000000000000000000000405505541400000000000000000000000000000000000080B663
:2B30350002000000000000000000000000000000000040D10CDC1400000000000000000000000000000000000008E871
:2B306000000000000000000000000000000000000000C0D1091E1D00000000000000000000000000000000000000E18F
:2B308B000000000000000000000000000000000000004051511D1500000000000000000000000000000000000080BFC7
:2B30B600000000000000000000000000000000000000405151551D00000000000000000000000000000000000000F7A4
:2B30E100000000000000000000000000000000000000C0D95DC10900000000000000000000000000000000000000E61E
:2B310C00020000000000000000000000000000000000000000000000000000000000000000000000000000000008EDA1
:2B313700000000000000000000000000000000000000401D89CC1D00000000000000000000000000000000000000FBA3
:2B31620000000000000000000000000000000000000040C909881400000000000000000000000000000000000000E7AD
:2B318D00000000000000000000000000000000000000404909901000000000000000000000000000000000000000B332
:2B31B800020000000000000000000000000000000000C0499D901C00000000000000000000000000000000000008A4EC
:2B31E300000000000000000000000000000000000000404995D01400000000000000000000000000000000000000EED1
:2B320E00000000000000000000000000000000000000C04995881400000000000000000000000000000000000080BE1D
:2B32390000000000000000000000000000000000000080DC958C1C00000000000000000000000000000000000000A62B
:2B326400000000000000000000000000000000000000000000000000000000000000000000000000000000000080E7D8
:2B328F00020000000000000000000000000000000000C05514D01D00000000000000000000000000000000000088A8CC
:2B32BA00000000000000000000000000000000000000405414485500000000000000000000000000000000000080AF75
:2B32E50000000000000000000000000000000000000040541C4C1500000000000000000000000000000000000000A706
:2B33100000000000000000000000000000000000000040DD09CC1D00000000000000000000000000000000000080F70C
:2B333B0002000000000000000000000000000000000040551D4C1500000000000000000000000000000000000088AC1E
:2B336600000000000000000000000000000000000000405515481500000000000000000000000000000000000080AA0B
:2B339100000000000000000000000000000000000000C0D515D01D00000000000000000000000000000000000000BAC0
:2B33BC00000000000000000000000000000000000000000000000000000000000000000000000000000000000080E77F
:2B33E700000000000000000000000000000000000000000000000000000000000000000000000000000000000080E754
:2B341200020000000000000000000000000000000000000000000000000000000000000000000000000000000008ED98
:2B343D00000000000000000000000000000000000000000000000000000000000000000000000000000000000080E7FD
:2B346800000000000000000000000000000000000000000000000000000000000000000000000000000000000080E7D2
:2B349300000000000000000000000000000000000000000000000000000000000000000000000000000000000080E7A7
:2B34BE00000000000000000000000000000000000000000000000000000000000000000000000000000000000080E77C
:2B34E900000000000000000000000000000000000000000000000000000000000000000000000000000000000080E751
:2B351400800008800008800008800008800008800008000000000020000220000220000220000220000220000280E729
:2B353F00800008800008800008800008800008800008000000000020000220000220000220000220000220000280E7FE
:2B356A00000000000000000000000000000000000000000000000000000000000000000000000000000000000080E7CF
:2B359500000000000000000000000000000000000000000000000000000000000000000000000000000000000080E7A4
:2B35C000000000000000000000000000000000000000200800020008000000000000000000000000000000000080CD61
:2B35EB00000000000000000000000000000000000000000000000000000000000000000000002000000000000080E530
:2B361600000000000000000000000000000000000000000000000008000000000000000000002000000000000000ED74
:2B364100000000000000000000000000000000000000400001000000000000000000000000000000000000000080B7E6
:2B366C00000000000000000000000000000000000000008000000000000000000000000000000000000000000080EF44
:2B369700000000000000000000000000000000000000000000000000000000000000000000000000000000000080E7A1
:2B36C200000000000000000000000000000000000000000000000000000000000000000000000000000000000080E776
:2B36ED00000000000000000000000000000000000000004000000000000000000000000000000000000000000080E30F
:2B371800000000000000000000000000000000000000000000000000000000000000000000000000000000000080E71F
:2B374300000000000000000000000000000000000000000000000000000000000000000000000000000000000080E7F4
:2B376E00000000000000000000000000000000000000000000000000000000000000000000000000000000000080E7C9
:2B379900000000000000000000000000000000000000000000000000000000000000000000000000000000000080E79E
:2B37C400000000000000000000000000000000000000000000000000000000000000000000000000000000000080E773
:2B37EF00000000000000000000000000000000000000000000000000000000000000000000000000000000000080E748
:2B381A00000000000000000000000000000000000000000000040000000000000000000000000000000000000080E31C
:2B384500000000000000000000000000000000000000000000000000000000000000000000000000000000000080E7F1
:2B387000000000000000000000000000000000000000000000000000000000000000000000000000000000000080E7C6
:2B389B00000000000000000000000000000000000000000000000000000000000000000000000000000000000080E79B
:2B38C600000000000000000000000000000000000000000000000000000000000000000000000000000000000080E770
:2B38F100000000000000000000000000000000000000000000000000000000000000000000000000000000000080E745
:2B391C00000000000000000000000000000000000000000000000000000000000000000000000000000000000080E719
:2B39470040100441100441100441100441100441100401000000002804411004411004411004A110044110044100D20F
:2B39720060188661188661188661188661188661188601000000007087611886611886611886C11D866118866100D2A6
:02399D00FFFF2A
:00000001FF
